:020000040800F2
:100000006008002055010008E11C0008331C0008AE
:1000100000000000000000000000000000000000E0
:10002000000000000000000000000000D9220008CD
:100030000000000000000000E31C0008DB220008B4
:100040006701000800000000670100086701000860
:1000500067010008670100086701000867010008E0
:100060000000000067010008670100086701000840
:100070006701000867010008670100080000000030
:100080006701000800000000000000006701000890
:100090000000000067010008670100086701000810
:1000A000000000006701000800000000552900085A
:1000B00000F002F800F03EF80CA030C80838241810
:1000C0002D18A246671EAB4654465D46AC4201D190
:1000D00000F030F87E460F3E0FCCB6460126334284
:1000E00000D0FB1AA246AB4633431847402C000011
:1000F000602C0000103A02D378C878C1FAD85207B1
:1001000001D330C830C101D504680C6070470000CD
:100110000023002400250026103A01D378C1FBD823
:10012000520700D330C100D50B6070471FB51FBD0B
:1001300010B510BD00F0DCF91146FFF7F7FF02F033
:10014000C5FC00F0F4F903B4FFF7F2FF03BC00F0C4
:10015000FBF900000748804707480047FEE7FEE735
:10016000FEE7FEE7FEE7FEE704480549054A064BC1
:100170007047000051230008B10000086002002011
:1001800060080020600400206004002010B5202AD0
:1001900004DB0846203AD040002110BD0B46202445
:1001A000D340D040A21A91400843194610BD4343A2
:1001B000514330B55C18010C130C0D4692B25D43EF
:1001C00080B251432C19054655430A0C09044D19B8
:1001D00062415843010C00044019514130BD70B5D3
:1001E00000252C46AD1A9C4112DA00252C462D1A0A
:1001F0008C4102DA00F02BF870BD002440428C41A3
:10020000214600F024F8002440428C41214619E0A8
:1002100000252C462D1A8C410ADA002452429C41BA
:10022000234600F014F8002440428C41214670BD62
:10023000002452429C414042234600248C412146E6
:1002400000F005F8002452429C41234670BDFEB5E3
:10025000054610460C46184373D0AE468C46002027
:10026000AD1A01469C4167D36646002701243D46EE
:10027000B61A9D4102D313463A4621246546764676
:100280002F04360C3E432D0CB61A9D4104D3150C99
:100290001B042B4312041034654676462F06360A9B
:1002A0003E432D0AB61A9D4104D3150E1B022B4363
:1002B00012020834654676462F0736093E432D095B
:1002C000B61A9D4104D3150F1B012B431201241DA7
:1002D00065467646AF07B6083E43AD08B61A9D415F
:1002E00004D3950F9B002B439200A41C65467646D1
:1002F000EF0776083E436D08B61A9D411AD392184F
:100300005B41641C16E00018764665464941B71A01
:100310009D410191009009D36046B11A98418E46E3
:100320008446009801990025401C6941DD07520868
:100330002A435B08641EE6D57246634603B0F0BDEF
:10034000FFE700200146C046C0462A462346F5E79F
:1003500001E004C0091F0429FBD28B0701D50280EC
:10036000801CC90700D00270704700290BD0C3075A
:1003700002D00270401C491E022904D3830702D513
:100380000280801C891EE3E70022EEE70022DFE7FF
:10039000002203098B422CD3030A8B4211D3002382
:1003A0009C464EE003460B433CD4002243088B425C
:1003B00031D303098B421CD3030A8B4201D39446E9
:1003C0003FE0C3098B4201D3CB01C01A52418309DC
:1003D0008B4201D38B01C01A524143098B4201D396
:1003E0004B01C01A524103098B4201D30B01C01AC1
:1003F0005241C3088B4201D3CB00C01A524183083B
:100400008B4201D38B00C01A524143088B4201D367
:100410004B00C01A5241411A00D2014652411046C7
:1004200070475DE0CA0F00D04942031000D340423C
:10043000534000229C4603098B422DD3030A8B4272
:1004400012D3FC22890112BA030A8B420CD3890110
:1004500092118B4208D3890192118B4204D38901F6
:100460003AD0921100E08909C3098B4201D3CB0134
:10047000C01A524183098B4201D38B01C01A5241E9
:1004800043098B4201D34B01C01A524103098B42ED
:1004900001D30B01C01A5241C3088B4201D3CB00D8
:1004A000C01A524183088B4201D38B00C01A5241BB
:1004B000D9D243088B4201D34B00C01A5241411A92
:1004C00000D20146634652415B10104601D34042C0
:1004D000002B00D54942704763465B1000D3404271
:1004E00001B50020C046C04602BD70477047704746
:1004F000754600F025F8AE46050069465346C0082B
:10050000C000854618B020B5FFF72EFE60BC00275E
:100510004908B6460026C0C5C0C5C0C5C0C5C0C5CF
:10052000C0C5C0C5C0C5403D49008D46704710B527
:100530000446C046C0462046FFF705FE10BD000039
:10054000004870470002002001491820ABBEFEE7BA
:10055000260002007047F8B5089F040001D0152955
:1005600001D20020F8BDAA2525705526667002200C
:10057000A0700120E0700C20207162711946A01D4E
:1005800000F056F820460A30069900F051F820464F
:100590000E30079900F048F83807000F20740F213B
:1005A000A01C00F009F801462046113000F03CF88C
:1005B000E67425751520F8BD70B504000C4802D00E
:1005C00000220C4D10E0002070BDA35C58400023B9
:1005D000C60702D04008684000E040085B1CDBB260
:1005E000082BF5D3521C92B28A42EED370BD0000A4
:1005F000FFFF000001A000000007000F072805D042
:100600000D2803D00E2801D000207047012070472C
:10061000C007C907000F490F0843D107890F0843D6
:10062000D907C90F084370470170090A4170704724
:1006300001700A0A42700A0C8270090EC17070477C
:1006400008B50020694608700878102803D200BF5A
:100650000878401CF7E708BD092208B5D2060F4903
:10066000904203D14A690120400404E00C4A9042C0
:1006700007D14A69000202434A6149690140009179
:1006800008BD084A904202D14A690002F3E7064ACF
:100690009042F5D14A6901208005ECE70010024044
:1006A00000040048000800480014004810B586B057
:1006B00014216846FFF76AFE0924E4062046FFF786
:1006C000CBFF2046FFF7C8FF2020009001200190BB
:1006D00000200290032003906946204600F0EEFBC4
:1006E00000F0EEF800F0D4F806B010BD10B5FFF73A
:1006F000DDFF052000F024FB0248407800F002F9FD
:1007000010BD00000800002010B500F0B9F8FFF798
:1007100097FF00F0BDF8FFF793FF10BDF8B50E4648
:10072000002407462E4920460C70002F00D0387058
:10073000002E00D03070FF209130009000F09CFC23
:10074000054607E000F098FC411B0098814201D962
:100750000020F8BD00F046F80128F3D000F0B0F812
:1007600000F096F8002500F08BF8FFF769FF6400B1
:1007700000F038F8012800D1044300F089F8FFF7B1
:100780005FFF6D1CEDB2182DEDD300F079F8FFF787
:1007900057FF002F04D000F025F8012800D1387051
:1007A00000F076F8FFF74CFF00F06AF8FFF748FF1B
:1007B000002E04D000F016F8012800D1307000F0AF
:1007C00067F8FFF73DFFFFF79FFF200202D5FF20EC
:1007D000000604430249012008702046F8BD0000CD
:1007E0000800002010B509208021C00600F038FC68
:1007F00010BD0000F0B585B00F00044606D0002CF7
:1008000001D0052C05D90524002504E0002005B001
:10081000F0BD00250AE000F02DF8AA0069468850D6
:10082000134800780028F2D06D1CEDB2A542F2D337
:100830006A46012012E081005358411E02E0B618BA
:10084000491E756049B2002903DB8E0095599D420F
:10085000F5DC89008918401CC0B24B602146A042DB
:10086000E9D348088100515801203960CFE70000E2
:100870000800002010B500210846FFF74FFF10BD0B
:1008800010B5092001222021C00600F0EEFB10BDAA
:1008900010B5092000222021C00600F0E6FB10BDA3
:1008A00010B5002B00D040238907890E80070B4329
:1008B000000F03439007800F184300F023F810BD8A
:1008C00000B585B014216846FFF760FD80200090D8
:1008D000002001900120029009206946C00600F026
:1008E000EDFA05B000BD000010B5054949784A068B
:1008F000D30F8A078906920F890FFFF7D1FF10BD2A
:100900000800002070B50546002186B00846FFF7B4
:1009100005FF14216846FFF739FD80200090012073
:100920000190002002900320039009206946C00630
:1009300000F0C4FA012000F031F8FFF7E5FEFFF700
:10094000E3FE002465263046A0404006C00F00F0BC
:1009500025F8FFF7D9FE641CE4B2072CF3D301207D
:1009600000F01CF8FFF7D0FE00242846A040000647
:10097000C00F00F013F8FFF7C7FE641CE4B2082CA8
:10098000F3D3FFF79DFFFFF7BFFE68060249400E55
:100990004870002006B070BD08000020024610B567
:1009A00009208021C00600F060FB10BDF8B5104C96
:1009B000A52525705A26667001278023A770184345
:1009C000E070042020716171A2710020E07120723A
:1009D00060720821A01CFFF7EFFD21468872000A13
:1009E000C8722673034865730E2141718771F8BD83
:1009F000B00100201400002070B50A4A1379984213
:100A000001D300200BE00021074C1D1A04E00E1852
:100A1000A65D6654491CC9B28D42F8DC181A1071E3
:100A200070BD0000140000205001002010B50749DF
:100A3000002288600A714A708A70CA708A71002820
:100A400002D0012201F056F810BD00001400002071
:100A500010B508494A788B78521C5206520E9A42B9
:100A600002D10120C87010BD034B4C7818554A7054
:100A700010BD000014000020D0000020FEB5314F52
:100A8000314C40E039783846A52922D141785A299D
:100A90001FD1062A3AD3017941291AD80B460A33C5
:100AA000DDB2AA4232D38278012A12D14219203A09
:100AB000937F5A2B0DD1D27FA52A0AD14318DA7918
:100AC0009B7916021E43B81C091DFFF775FDB04245
:100AD00001D0012015E01B48C378009301794279C9
:100AE00001920022801D012B11D0102B03D0112B5D
:100AF00001D0122B0ED0052201990098FFF756FF66
:100B00002846FFF779FF2279022ABBD2FEBD0029D1
:100B100002D1F1E7022901D00222EDE74178007805
:100B20000E020643304601F0E9FA002806D03046AE
:100B300001F060FB002803D00022DDE70622DBE79E
:100B40000422D9E75001002014000020F1B51B4C0D
:100B500082B0E0780025002801D0E5702571184F9B
:100B60003E46803EA0786178884216D0A078305CFE
:100B700069460870A078401C4006400EA07020799D
:100B8000602800D32571207909783954401C2071E0
:100B9000FFF774FFA0790028E4D0A07900280BD0DB
:100BA0000298002808D06279002A05D0A57104496E
:100BB0006423603100F0DCFFFEBD00001400002063
:100BC0005001002072B6FEE706490020C8610648C1
:100BD000016904221143016101694022114301614D
:100BE00070470000E001002000200240064A00217A
:100BF000D16106490A6902231A430A6148610869FA
:100C00004022104308617047E001002000200240AC
:100C100010B5054B0022DA61044A1369012423430D
:100C20001361018010BD0000E0010020002002409F
:100C300010B50B4A0020D168CB060A4904D5C86913
:100C400002231843C8611020D3685B0705D5CB6920
:100C500001242343CB6104210843D06010BD000070
:100C600000200240E001002070B5054600F004FAC3
:100C70000646104C0AE0681C08D0002D04D000F095
:100C8000FBF9801BA84201D9032070BDE068C007B2
:100C9000F1D1E068800601D52020E060E068C00660
:100CA00002D4E068400703D5FFF7C2FF012070BD02
:100CB000002070BD0020024030B5014620314B7845
:100CC0000022022B04D0042383630A70012030BD6C
:100CD00003681C680E25AC431C6003681C6864082C
:100CE00064001C600123056C1C46C06BAC40446072
:100CF0004B700A70002030BD70B5002401462031D1
:100D00004A78022A03D004218163012416E0026894
:100D100013680E25AB431360026813685B085B0021
:100D200013600122056C1346AB40C56B6B604A70C3
:100D300000220A70416B002900D08847204670BD10
:100D400070B5044600F098F90546601C02D00448CE
:100D50000078241800F090F9401BA042FAD370BD2F
:100D600038000020F8B5054623480F46017E0126CD
:100D700001290BD0012101762868204C012807D0D9
:100D80002046FFF771FF002813D030E00220F8BDA5
:100D90002046FFF769FF002829D1FFF715FF2046FD
:100DA000FFF762FF0646164801690422914301617C
:100DB0001DE00020C04338606C6812E02046FFF759
:100DC00015FF0E48FFF750FF06460D480269022145
:100DD0008A430261002E01D03C6008E001208002BD
:100DE0002418A868810268680818A042E6D802485A
:100DF000002101763046F8BDE001002050C300001C
:100E00000020024003480169802211430161002053
:100E10007047000000200240F0B51FB407461A4892
:100E20000024017E15461E46012907D001210176C6
:100E30001648FFF719FF002803D020E0022005B074
:100E4000F0BD012F02D0022F00D004272201284636
:100E50003146FFF79BF981B2019862001018FFF745
:100E6000D7FE0A48FFF700FF09490A6952085200F5
:100E70000A61002803D1641CE4B2BC42E6D30249F3
:100E800000220A76DBE70000E001002050C30000EA
:100E900000200240064900200A69120607D5054ACB
:100EA0004A60054A4A600969090600D50120704771
:100EB0000020024023016745AB89EFCDF8B5002340
:100EC00003240125BAE02E469E40B44632407CD031
:100ED0000E79B607B60F012E01D0022E17D1866803
:100EE0002746B6465E00B74000967646BE43B646F5
:100EF000CF68009EB74076463743876046686746AE
:100F0000BE430F79FF06FF0F9F40374347600E79BE
:100F1000F643B6070ED0C6682746B4465E00B6460E
:100F2000B7406646BE43B4468F687646B7406646CD
:100F30003743C7600E79B607B60F022E14D1DE080C
:100F4000B60036180096366A5F07B446FE0E0F27C5
:100F5000B646B7406646BE43B4460F697646B740CC
:100F600066463743009E376206682746B4465E00F1
:100F7000B646B7406646BE430F79B446BF07BF0FBB
:100F80007646B7406646374307604E68B603B60FED
:100F900053D02D4FBE692E43BE61BE699F08F60730
:100FA000F60F2A4EBF00BE190096B6680F27B4464A
:100FB0009E07360FB646B7406646BE430927FF0672
:100FC000B446B84202D1002710E036E0204FB842C4
:100FD00001D101270AE01F4FB84201D1022705E0E5
:100FE0001D4FB84201D1032700E005277646B740E0
:100FF00066463743009EB760184EB6684F68964302
:10100000FF0200D51643154FBE60FE684F68964339
:10101000BF0200D51643114FFE607E684F689643AD
:10102000BF0300D516430D4F7E603E684F68964360
:10103000FF0300D51643094A16605B1C0A68164672
:10104000DE4000D03FE7F8BD001002400000014044
:101050000004004800080048000C0048000401405B
:101060000069084000D001207047002A01D081614A
:101070007047816270470000014880687047000037
:101080003800002002488168027889188160704722
:101090003800002010B50648016810221143016095
:1010A000032000F007F800F027F8002010BD000032
:1010B0000020024070B504460D4D7D202978C00007
:1010C000FFF766F901460B480068FFF761F900F089
:1010D0002DFB002809D1042C07D200222146401EF6
:1010E00000F02AF800206C6070BD012070BD000087
:1010F000380000204400002008B50848816901221A
:1011000011438161816911400091C26901040A4360
:10111000C261C0690840009008BD00000010024094
:10112000002805DBC106C90E01208840014908607E
:101130007047000000E100E010B501F0A5FC10BD13
:10114000F8B505460068354CC00352D5E069002665
:10115000C00007D4E16920040143E161E169014075
:10116000012600912E480168C90510D40168821536
:1011700011430160FFF780FF074604E0FFF77CFFA3
:10118000C01B642824D826480068C005F6D5206A0C
:1011900003273F02384020D06968394081421CD083
:1011A000206A226AB843012109040A432262226AA2
:1011B0008A4322622062C0070FD0FFF75DFF0090D4
:1011C00008E0FFF759FF0099411A1648814201D9FA
:1011D0000320F8BD206A8007F3D5206A6968B84308
:1011E00008432062002E04D0E169012000078143FA
:1011F000E1612878C00705D0206BA96880088000CD
:10120000084320632878800605D5206B1021884389
:10121000E968084320630020F8BD00000010024088
:101220000070004088130000F8B50F46060059D042
:101230003A4D2868C007C00FB84209D22868400854
:101240004000384328602868C007C00FB84249D121
:101250003068334C81070CD5400704D560680721FE
:101260000902084360606068F0218843B168084360
:1012700060603078C00726D0706801280ED02168E1
:1012800002280ED0890700292CDA616889088900B4
:1012900001436160FFF7F0FE00900DE021688903D3
:1012A000F1E78901EFE7FFF7E7FE0099411A1D48D2
:1012B000814201D90320F8BD60680C2108407168A3
:1012C00089008842EFD12868C007C00FB8420BD907
:1012D000286840084000384328602868C007C00FCD
:1012E000B84201D00120F8BD3078400706D56068CB
:1012F000072109028843F1680843606000F028F87C
:101300006168094A0906090F515CC840074908602D
:101310000320FFF7CFFE0020F8BD000000200240B0
:101320000010024088130000142D00084400002023
:101330000448054900684968044A4905490F515C59
:10134000C84070474400002000100240242D0008CF
:1013500010B5104A51680C200B4603400E48042B70
:1013600017D0082B15D18B020C4C1B0FE45CD26AF2
:101370000A4B1207120F10339A5CC90305D50023DC
:101380001946FEF764FF214601E02046044901F0BA
:1013900055FB10BD0010024000127A00F42C00082A
:1013A00000093D00FEB5040070D02078DC4DC00778
:1013B0004AD068680007800F012807D068680007D6
:1013C000800F022809D16868C00306D52868800309
:1013D0003AD560680028E7D036E06168012914D06A
:1013E00001208004002901D0052914D02A68012198
:1013F00009048A432A6029688143296060680028BB
:1014000016D0FFF739FE06460EE0286801210904D0
:1014100008432860F2E7296801432960F5E7FFF7F0
:101420002BFE801B64286ED828688003F7D50BE05C
:10143000FFF722FE064604E0FFF71EFE801B64282D
:10144000F1D828688003F7D4207801268007002887
:101450003CDA68680007800F07D068680007800FD3
:10146000022809D16868C00306D42868800716D509
:10147000E06801280AD112E0E0680028286816D048
:1014800030432860FFF7F8FD074605E043E1FFF72A
:10149000F3FDC01B0228C6D828688007F7D5286846
:1014A000F82188432169C900084328600EE04008FC
:1014B00040002860FFF7E0FD074604E0FFF7DCFD91
:1014C000C01B0228AFD828688007F7D4207800070F
:1014D00022D5E0690028686A0ED030436862FFF7C1
:1014E000CBFD074604E0FFF7C7FDC01B02289AD8D2
:1014F000686A8007F7D50FE0400840006862FFF790
:10150000BBFD074605E09DE0FFF7B6FDC01B0228C6
:1015100089D8686A8007F7D4207804274007002814
:1015200060DA00200190E869C00008D4E969B806D3
:101530000143E961E9690140012000910190794886
:101540000168C90511D40168821511430160FFF7D4
:1015500093FD009005E0FFF78FFD0099401A642885
:1015600070D870480068C005F5D5A06801280AD079
:10157000002801D0052810D0286A400840002862C1
:10158000286AB84301E0286A30432862A06800282E
:1015900012D0FFF771FD00900AE0286A38432862F4
:1015A000F1E7FFF769FD0099411A5F48814249D888
:1015B000286A8007F5D50DE0FFF75EFD009006E094
:1015C000FFF75AFD0099411A574881423AD8286AD4
:1015D0008007F5D40198002804D0E96901200007AC
:1015E0008143E9612078C00635D5606901280CD0B7
:1015F000401D686B23D038436863686B4008400027
:101600006863FFF739FD064622E0686B384368637C
:10161000686B30436863FFF72FFD064604E0FFF771
:101620002BFD801B02285BD8686B8007F7D5686BA1
:10163000F8218843A169C900084368630BE0B843F7
:101640006863F4E74CE0FFF717FD801B022847D8DA
:10165000686B8007F7D4206A00285ED069680907A4
:10166000890F022942D0012636060228286805D0B3
:10167000B0432860FFF700FD044633E0B043286024
:10168000FFF7FAFC074604E0FFF7F6FCC01B022850
:1016900026D828688001F7D4E86AE16A00090001C9
:1016A0000843E862616AA06A084369683D2212043F
:1016B000914308436860286830432860FFF7DCFCEA
:1016C000044604E0FFF7D8FC001B022808D828686D
:1016D0008001F7D521E0FFF7CFFC001B022801D9DC
:1016E0000320FEBD28688001F5D416E00128F8D05B
:1016F0006868E96A01221204636A02409A420AD1C8
:101700000907E26A090F914205D10F2189040840B7
:10171000A16A884201D00120FEBD0020FEBD00006C
:10172000001002400070004088130000094910B505
:10173000401E884201D9012010BD074C6061032181
:10174000081F01F0A1F90020A061072020610020FE
:1017500010BD0000FFFFFF0000E000E07047000048
:10176000014610B505488068002805D0814203D1A4
:101770000122024900F0BEF910BD00001400002053
:10178000F8B502680446D069116893689E4D064614
:101790002E4025468035002E71D09C4FDE07F60F77
:1017A0000F4037437ED0C70706D0CF0504D50127A9
:1017B00017626A683A436A60820708D5DA0706D07A
:1017C000276802223A626A6804273A436A6042073D
:1017D00008D5DA0706D0236804221A626A68022351
:1017E0001A436A60020709D520220A40324305D015
:1017F000236808221A626B6813436B60020509D5DF
:101800004A0107D501222368D2021A626B6820229E
:1018100013436B606A68002A39D0800606D58806B3
:1018200004D5A16E002901D0204688476868216848
:101830008968490602D4282108422DD0204600F0AC
:1018400059FE21688868400622D5EFF310800122F6
:1018500082F310888A6840239A438A6080F3108854
:10186000606F002814D06A494163606FFFF744FA43
:1018700000280CD0606F416B08E000E012E08306A6
:1018800010D58B060ED5A16EA3E020468847F8BD83
:101890002046FFF765FFF8BD2046FFF761FF0020F7
:1018A0006860F8BD236E012B7ED1C3067CD5CB06C4
:1018B0007AD5102313622268906826464006403687
:1018C000002848DA616F086840680004000CE8D01E
:1018D000378B8742E5D970838869202834D0EFF3AD
:1018E0001080012181F3108811681F01B943116034
:1018F00080F31088EFF31080012181F310882168B4
:101900008A68520852008A6080F31088EFF31080D2
:10191000012181F3108821688A684027BA438A60D0
:1019200080F310882020286000202066EFF31080CC
:10193000012181F3108821680A689A430A6080F3C4
:101940001088606FFFF7B8F902206066308B718BEA
:10195000401A81B234E0308B718B401A81B2708BA7
:1019600000289ED000299CD0EFF31080012686F33A
:1019700010881668FF272137BE43166080F3108851
:10198000EFF31080012282F31088226896687608AF
:101990007600966080F31088202028600020206662
:1019A000A066EFF3108000E00EE0012282F31088C1
:1019B000226815689D43156080F3108802206066D8
:1019C0002046FFF7CBFEF8BD030606D50B0604D56F
:1019D000E16E002900D058E7F8BD4006FCD5480666
:1019E000FAD52046EFF31081012383F310881468A1
:1019F00040239C43146081F310882021C16700219B
:101A0000C16600F015F9F8BD0F08000020010004C0
:101A1000E124000810B5040003D0E06F002802D0D4
:101A200007E0012010BD002178200155204600F07C
:101A300027F82420E0672068016849084900016010
:101A4000606A002802D0204600F083FC204600F0A7
:101A50004FFE0128E6D0206841680122D20291435E
:101A60004160206881680822914381602068016894
:101A7000012211430160204600F0D0FC10BD00009F
:101A800010B586B0044614216846FEF77FFC17495E
:101A90002068884227D116488269012189030A43B8
:101AA000826182690A4005924269C9000A43426123
:101AB00040690840059003204002009002200190F8
:101AC0000020029003200390012004900920694621
:101AD000C006FFF7F3F9002211461B20FFF72CFB8D
:101AE0001B20FFF71DFB06B010BD000000380140B1
:101AF0000010024070B580231B58202B01D002201B
:101B000070BD00290BD0002A09D00124836824036A
:101B1000A34206D10369002B03D1CB0701D00120DA
:101B200070BD00230366046863681B020BD5EFF3E6
:101B30001083012585F3108825680126B6063543F4
:101B4000256083F3108800F061FE70BD10B5074C6E
:101B5000A168002909D0884207D12078FEF778FFD4
:101B600001222146A068FFF7C5FF10BD1400002028
:101B7000FFB50446C06F83B017460D46202802D03B
:101B8000022007B0F0BD002D0BD0002F09D001209E
:101B9000A1680003814206D12069002803D1E8072B
:101BA00001D00120EDE70021842001512120E067D0
:101BB000FFF762FA2646403601903782778201208D
:101BC000A1680003814202D12069002802D02F467B
:101BD000002511E000270FE000228021204600F0C0
:101BE0006DFE002815D1002F17D0216838780885A0
:101BF0007F1C708A401E7082708A019B00280698A4
:101C00000090E9D100224021204600F057FE002834
:101C10000AD02020E0670320B3E728882168C005A8
:101C2000C00D0885AD1CE4E72020E0670020A8E790
:101C30007047FEE770B586B014216846FEF7A6FB34
:101C400018484269012149040A4342614069092652
:101C50000840F6060590002220213046FFF705FADD
:101C60008020002401256A4631C269463046FFF7CC
:101C700025F92020009003200390019502946946E5
:101C80003046FFF71BF91E206A4631C269463046CE
:101C9000FFF714F901221E213046FFF7E6F906B0DE
:101CA00070BD00000010024010B50C480A490160E8
:101CB0004B21C901416000218160C16001618161E6
:101CC000C1610C22016242614162FFF7A3FE00285C
:101CD00001D0FEF777FF10BD00380140480000201A
:101CE000FEE77047C217CB17401A9A4103D5114639
:101CF000002240428A4103490023091A934100DA35
:101D000000487047FFFFFF7F10B50649C8600220FA
:101D10000870002048708871C871887000F022F93E
:101D200010BD000024000020F3B50246002091B051
:101D3000069002230193089003230293129F4B4BBA
:101D400001460646054604460590002F03D09F78BD
:101D5000BC46052F02D3002098707FE063469F00A9
:101D6000434BDA516246521CD2B2404B052A9A705C
:101D700074D33F4A13680493039300233C4F9A00A3
:101D8000BA58049FBA4200DA0492039FBA4200DDB7
:101D90000392D717101879415B1CDBB2052BEDD3EA
:101DA00005220023FEF71BFA00270F90C0171090A2
:101DB0002F48B90043580F98D917109A181A914113
:101DC00002460B46FEF7F3F986194D417F1CFFB220
:101DD000052FEDD30020264982008958089BCA1799
:101DE000C91827460891144602997C4109188A00AF
:101DF0001F49059B8F58069AF917BA185941069240
:101E00000591401C0199C0B28842E4D30A460027DC
:101E10003B4621460898FEF7E2F900900023019A1C
:101E200005990698FEF7DBF9104A0146977003986A
:101E3000049AC317D417801AA3410E4A0024101A1B
:101E40009C410BDB0C4A0020921BA84106DB00984A
:101E5000FFF748FFFF21F531884202DD002013B073
:101E6000F0BD12990F9808600120F8E724000020C7
:101E7000C8010020DC0500003414170010B5054926
:101E800006220A70487000208871C871887000F0BE
:101E900069F810BD240000200148C06870470000A8
:101EA0002400002001480069704700002400002041
:101EB00010B50A4C0020A060E06020616070A07145
:101EC000E071A07000F04EF82046083000F0A8F94C
:101ED000E070002800D00120207010BD24000020F8
:101EE00003480078042801D0002070470120704783
:101EF00024000020F8B50D466946FFF715FF0028BD
:101F000027D0164901264A00154C0098002D0ED006
:101F10004118914201D903201DE000F09DF90028ED
:101F200003D00098A060E67011E0052013E0E3788C
:101F3000002B0FD0411891420CD8A168FFF7D2FEB8
:101F400000F010FDFF21F531884203D80098FFF71B
:101F5000DBFEF8BD0420FFF791FFF8BDA08601006D
:101F600024000020024800210171417170470000E7
:101F700024000020F8B506460C4615461046FEF72C
:101F80003BFB0021574F002C0AD00C46B971397821
:101F90000B0000F06BFD07181C263A6F9B9B160088
:101FA000B9703878042801D0FFF7DCFFB87903282E
:101FB00001D2401CB871387804280DD1B8790328B3
:101FC0000AD3012006E000287DD0022002E000288C
:101FD000FBD182E0FFF752FFF8BD3046FFF78AFFE2
:101FE000F8BD002850D03879854203D03D710120DA
:101FF00078716DE07879022804D2401CC0B2787103
:102000000228EDD30320387062E0002802D038792E
:10201000854202D00220387036E069463046FFF72C
:1020200083FE0028DCD0009AF868D117C317101A75
:1020300099412D4B0A46DD12C31AAA4101DA062046
:10204000C8E72A4B7D25ED0000221B1A8A4103DBDD
:1020500000F088FCA84201D30820BBE7FF21F5313E
:10206000884201D90720B5E700983861042038700C
:102070007C7029E0002802D03879854208D00520FC
:10208000387009207870FC71BC70FFF76BFFF8BDE9
:102090003869F117C217301A914115D5134B9B1CA3
:1020A000DA17C31A914104DB404200F05BFCC828F8
:1020B0000AD9F879032804D2401CC0B2F871032869
:1020C000E5D30A2086E70AE0FC71F8BD002801D0BC
:1020D000BC70F8BDF878002801D000217DE701210F
:1020E0007BE700002400002024FAFFFFFFFFFF7FB2
:1020F0000148008870470000200000200349401E6E
:10210000884201D801207047002070474FC300006B
:102110000B4900280FD00B4B0A689A420AD18B68F2
:102120004968094A4A40934204D1002902D0074A2B
:10213000914201D9002070470180012070470000C2
:10214000003C0008455248541F08EDF150C3000000
:10215000F0B500261D4A85B0411E0396914202D972
:10216000002005B0F0BD1B4904464840184F054605
:10217000FEF790FE00960120174E029003A90196EB
:102180006846FEF7EFFD002818D13A460023314695
:102190000220FEF741FE002810D122460023311D07
:1021A0000220FEF739FE002808D10B492A460023F9
:1021B00008310220FEF730FE002802D0FEF722FE92
:1021C000CEE7FEF71FFE0120CBE700004FC3000063
:1021D000455248541F08EDF1003C0008034A411ED7
:1021E000914201D802490880704700004FC30000A7
:1021F0002000002010B504460749401E884201D93E
:10220000002010BD2046FFF7A3FF0028F9D00348A7
:102210000480012010BD00004FC3000020000020FA
:102220000A4900280DD00A4B0A689A4208D14A6828
:10223000012A05D1CB688968064A4A40934201D0F9
:10224000002070470160012070470000003800083E
:102250004F52455A8D6E1FFFF0B589B004460026D7
:102260001A48089601AF0125039421C71848083F72
:1022700060400490FEF70EFE0596164E08A905A8CC
:1022800006960795FEF76EFD002802D0FEF7BAFD10
:1022900016E00025A8003A58811900230220FEF715
:1022A000BBFD0028F2D16D1C042DF3D3FEF7AAFD6F
:1022B0006846FFF7B5FF002802D00098A04202D080
:1022C000002009B0F0BD0120FBE700004F52455A45
:1022D0008D6E1FFF00380008704710B5FEF7D2FE64
:1022E00010BD30B595B030216846FEF74FF8002498
:1022F00001250F941220059500900D940E94102046
:102300001094129413940C940395049006901194D5
:1023100008946846FFF746F8002801D072B6FEE739
:1023200007200C900D940E9400210F940CA8FEF73A
:102330007BFF002801D072B6FEE710A8109512941A
:10234000FEF7FEFE002801D072B6FEE715B030BDE4
:10235000704710B5818C090707D501684A680123C9
:10236000DB039A43436B1A434A60818CC90707D049
:1023700001684A6801235B049A43836A1A434A60EE
:10238000818C890707D501684A6801231B049A4399
:10239000C36A1A434A60818C490707D501684A68B5
:1023A00001239B049A43036B1A434A60818CC9063C
:1023B00007D50268916801231B039943836B194376
:1023C0009160818C890607D501688A6801235B03C7
:1023D0009A43C36B1A438A60818C490612D50368FD
:1023E0005A6801210905046C8A4322435A60026C31
:1023F0008A4207D10268516803235B059943436C05
:1024000019435160818C090607D501684A68012388
:10241000DB04806C9A4302434A6010BDFEB5074658
:102420000025803704467D60FEF726FE0190206877
:102430000068264600076036002819DA2748009011
:102440000121002249052046019B00F037FA0028AF
:102450000ED0EFF31080012181F3108821680A6803
:1024600080239A430A6080F310882020E06729E0E7
:1024700020680068400728D51848009001210022F4
:1024800089052046019B00F019FA00281DD0EFF3C2
:102490001080012181F3108821680A68FF2321330D
:1024A0009A430A6080F31088EFF31080012181F3D2
:1024B000108821688A68520852008A6080F3108868
:1024C0002020386035760320FEBD2020E06738608C
:1024D0002566656635760020FEBD0000FFFFFF0122
:1024E00010B5406A0022014640314A834A82FFF714
:1024F00037F910BD10B5EFF31081012282F3108877
:1025000002681368FF242134A343136081F3108809
:10251000EFF31081012282F31088026893685B0850
:102520005B00936081F31088016E01290BD1EFF3FA
:102530001081012282F31088026813681024A343DB
:10254000136081F31088202280210A500021016647
:10255000816610BD70B501464031034680338C8BD7
:102560001D680268222D04D09069082108439061FB
:1025700070BD928C456D22402A80426D921C42654E
:102580004A8B521E4A834A8B002AF1D1EFF3108204
:10259000012484F3108804682568FF262136B5439A
:1025A000256082F31088EFF31082012484F31088F1
:1025B0000468A5686D086D00A56082F3108820226C
:1025C0001A600023836643660468626812020BD5B2
:1025D000EFF31082012585F3108825680126B606E1
:1025E000B543256082F31088026E012A02D0FFF7FE
:1025F000ADFA70BD0366EFF31082012383F31088F8
:102600000468256810239D43256082F310880268C2
:10261000D469E443E40600D41362098BFFF79EF803
:1026200070BD70B501464031034680338C8B1D6808
:102630000268222D04D0906908210843906170BD82
:10264000928C2240446D2270426D521C42654A8B2E
:10265000521E4A834A8B002AF1D1EFF310820124E3
:1026600084F3108804682568FF262136B543256069
:1026700082F31088EFF31082012484F31088046839
:10268000A5686D086D00A56082F3108820221A608D
:102690000023836643660468626812020BD5EFF379
:1026A0001082012585F3108825680126B606B543FA
:1026B000256082F31088026E012A02D0FFF746FAE5
:1026C00070BD0366EFF31082012383F31088046862
:1026D000256810239D43256082F310880268D46921
:1026E000E443E40600D41362098BFFF737F870BDAA
:1026F00070B5044680682169E26908436169002574
:102700001143084321680A683C4B1A4002430A609F
:1027100021684868032212039043E268104348602E
:10272000A169206A084321688A680B231B029A4327
:1027300002438A603248006B8007800F16D0012860
:1027400018D0022818D0032812D010210122E369E2
:10275000D2032C482C4E93422AD100290ED00229B4
:1027600013D004290DD008293BD11FE00021EDE74B
:102770000221EBE70421E9E70821E7E7FEF7D8FDAE
:1027800001E0FEF7E5FD002832D0616840004A080C
:102790008018FDF7FDFD01461039B14221D81A49D4
:1027A000491C01400007400F08431FE01046ECE7BA
:1027B000002906D002290BD0042905D0082910D100
:1027C00011E0FEF7B5FD01E0FEF7C2FD00280FD0D5
:1027D00061684A081018FDF7DBFD01461039B14267
:1027E00003D9012504E01046F2E780B22168C860F1
:1027F0000020A066E066284670BD0000F369FFFF78
:102800000010024000127A00EFFF000030B5416571
:10281000014640310A834A8300238366012285688A
:102820001203FF24954204D10569002D2ED1204CBE
:102830002CE0002D26D08B83014680314B60222373
:102840000B60EFF31081012383F3108803689C6809
:1028500001252C439C6081F310888168914202D14C
:102860000169002914D0134981660169002911D03A
:10287000EFF31081012282F3108800680268FF23C1
:1028800021330FE00569002D00D07F248C83D3E72E
:1028900009498166EFF31081012282F310880068F4
:1028A000026820231A43026081F31088002030BDA3
:1028B000FF0100002326000855250008FFB5064645
:1028C0008036054681B00F460446603534E00A98EC
:1028D000401C31D0FEF7D0FB0499411A0A9881427E
:1028E00018D8002816D020680168490724D5802F01
:1028F00022D0402F20D0C169C94309070CD4082732
:1029000007622046FFF7F6FD776000202876012059
:1029100005B0F0BD0320FBE7C069C04300050BD440
:1029200001202168C00208622046FFF7E3FD202055
:10293000706000202876EDE72068C169384688433A
:1029400005D0002103988142C1D00020E0E7012199
:10295000F8E7000010B50248FEF712FF10BD0000B6
:102960004800002010B5002801DC002010BD0B4AF3
:102970000021CB009B189B68834206DBC9008918A5
:102980000A46083200F01AF810BD491CC9B20829DD
:10299000EFD3024A403211460839F3E7AC2C000865
:1029A00070B50D46FFF7DEFF04462846FFF7DAFF55
:1029B000844201D8002070BD201A70BDF8B51346BE
:1029C0000E4611683268CC17D71786468D1A58689C
:1029D0007668BC41801B0023844600219B41084649
:1029E000491BA04101DB3046F8BD38467746F91750
:1029F000BF1A814162463846FDF7D9FB0746009170
:102A00000222002328462146FDF7E9FB009AC0195F
:102A100051412A462346FDF7E2FB0022801951412D
:102A2000131A8A4101DB0020F8BD0023DB4300229A
:102A30001B1A8A41F8DA0020C043F8BDF8B5040C2F
:102A40008BB2264682B25E430D0C1046370C5843BB
:102A5000360480190021794116466E43370C36043E
:102A60008019794126466E438919F8BD30B4744601
:102A7000641E2578641CAB4200D21D46635D5B007A
:102A8000E31830BC184700008307FF22DB0E9A4092
:102A90008907090E9940002808DB830809489B0034
:102AA0001B18186890430843186070470007000F10
:102AB0000838830804489B001B18D86990430843D2
:102AC000D861704700E400E000ED00E096B0FEF74A
:102AD000E1FAFFF706FCFFF7ADF8FFF7E5F8FDF7C1
:102AE00005FE0120FDF700FF18210FA8FDF74EFCA1
:102AF0000020089003906A48FFF70AFB684FBF1E4A
:102B0000002802D1FF20913078807888FFF766FB9B
:102B1000FFF7CEF96348FDF789FF0020064605461A
:102B200004460E90012007900690059004905D48A1
:102B3000FEF70CF803A90020FDF75CFE070000D1AA
:102B4000039009200221C006FEF78AFA012800D06E
:102B500000200A9009200421C006FEF781FA01280E
:102B600000D00020099009200821C006FEF778FA5D
:102B7000012800D00020029009201021C006FEF795
:102B80006FFA012800D00020079A0A99914209D0D3
:102B90000E99022904D2491CC9B20E91022903D30D
:102BA0000A99079100210E91069A0999914206D03F
:102BB000022E03D2761CF6B2022E01D30691002615
:102BC000059A0299914206D0022D03D26D1CEDB2F6
:102BD000022D01D3059100250499884206D0022CCC
:102BE00003D2641CE4B2022C01D304900024049BA1
:102BF000059A06990798FDF70BFD024601903946A4
:102C00000398FFF7B7F9002F24D0FFF769F90028E0
:102C100020D0FFF741F907460398C01B0290FFF749
:102C200041F9C11B0298FFF7BBFE1D49891E0A78B6
:102C3000002A05D04A68904206D3074648600FE054
:102C400001220A70074603E0101AC01C8008171AF8
:102C50004F6005E012490020891E0870124F48603D
:102C6000FFF746FA019902910190009715210FA8EC
:102C7000039B089AFDF76FFC02000AD064230FA99A
:102C80000848FEF775FF002803D10898401CC0B221
:102C90000890C820FEF754F80248FDF757FF46E7B2
:102CA0000200002048000020701700000000000013
:102CB00000000000FA490000DA000000905A00000D
:102CC0000C010000B38B0000A20100004CEF0000DB
:102CD000CE020000A48C0100C20400003EC7020026
:102CE000AA080000BA7306006214000034470C0002
:102CF000EA27000002030405060708090A0B0C0D69
:102D00000E0F10100102030405060708090A0B0C38
:102D10000D0E0F100000000000000000010203046F
:102D20000607080900000000010203044C2D0008FA
:102D30000000002048000000F4000008942D000866
:102D40004800002018080000100100080000900151
:102D500000000000000C0000B604000000000000AD
:102D600000000000000000000000000090010000D2
:102D70000000000000000000000000000000000053
:102D8000000000000100000004000000000000003E
:042D900000127A00B3
:04000005080000B13E
:00000001FF
