:020000040000FA
:1000000038070020550100005D1200009D1100001E
:1000100000000000000000000000000000000000E0
:10002000000000000000000000000000611200005D
:1000300000000000000000005F12000063120000DA
:100040006701000000000000670100006701000078
:100050006701000067010000670100006701000000
:100060000000000067010000670100006701000058
:100070006701000067010000670100000000000048
:1000800067010000000000000000000067010000A0
:100090000000000067010000670100006701000028
:1000A0000000000067010000000000006701000080
:1000B00000F002F800F03EF80CA030C80838241810
:1000C0002D18A246671EAB4654465D46AC4201D190
:1000D00000F030F87E460F3E0FCCB6460126334284
:1000E00000D0FB1AA246AB463343184774160000F3
:1000F00094160000103A02D378C878C1FAD8520793
:1001000001D330C830C101D504680C6070470000CD
:100110000023002400250026103A01D378C1FBD823
:10012000520700D330C100D50B6070471FB51FBD0B
:1001300010B510BD00F07BF91146FFF7F7FF01F095
:10014000D7FA00F093F903B4FFF7F2FF03BC00F015
:1001500099F900000748804707480047FEE7FEE797
:10016000FEE7FEE7FEE7FEE704480549054A064BC1
:1001700070470000D9120000B100000038010020D3
:10018000380700203803002038030020FEB505465C
:1001900010460C46184373D0AE468C460020AD1A6C
:1001A00001469C4167D36646002701243D46B61AA6
:1001B0009D4102D313463A462124654676462F04D4
:1001C000360C3E432D0CB61A9D4104D3150C1B046E
:1001D0002B4312041034654676462F06360A3E43FA
:1001E0002D0AB61A9D4104D3150E1B022B43120291
:1001F0000834654676462F0736093E432D09B61A60
:100200009D4104D3150F1B012B431201241D65468C
:100210007646AF07B6083E43AD08B61A9D4104D3F3
:10022000950F9B002B439200A41C65467646EF0772
:1002300076083E436D08B61A9D411AD392185B4169
:10024000641C16E00018764665464941B71A9D4180
:100250000191009009D36046B11A98418E468446B8
:10026000009801990025401C6941DD0752082A4386
:100270005B08641EE6D57246634603B0F0BDFFE737
:1002800000200146C046C0462A462346F5E701E065
:1002900004C0091F0429FBD28B0701D50280801CF2
:1002A000C90700D00270704700290BD0C30702D0E5
:1002B0000270401C491E022904D3830702D5028024
:1002C000801C891EE3E70022EEE70022DFE7002220
:1002D00003098B422CD3030A8B4211D300239C4683
:1002E0004EE003460B433CD4002243088B4231D3FB
:1002F00003098B421CD3030A8B4201D394463FE08F
:10030000C3098B4201D3CB01C01A524183098B42EE
:1003100001D38B01C01A524143098B4201D34B01D7
:10032000C01A524103098B4201D30B01C01A52413A
:10033000C3088B4201D3CB00C01A524183088B42C1
:1003400001D38B00C01A524143088B4201D34B00AA
:10035000C01A5241411A00D201465241104670471C
:100360005DE0CA0F00D04942031000D34042534021
:1003700000229C4603098B422DD3030A8B4212D3E1
:10038000FC22890112BA030A8B420CD38901921113
:100390008B4208D3890192118B4204D389013AD050
:1003A000921100E08909C3098B4201D3CB01C01A25
:1003B000524183098B4201D38B01C01A5241430938
:1003C0008B4201D34B01C01A524103098B4201D326
:1003D0000B01C01A5241C3088B4201D3CB00C01A93
:1003E000524183088B4201D38B00C01A5241D9D2AB
:1003F00043088B4201D34B00C01A5241411A00D22C
:100400000146634652415B10104601D34042002B27
:1004100000D54942704763465B1000D3404201B5A6
:100420000020C046C04602BD704770477047754601
:1004300000F024F8AE46050069465346C008C000E7
:10044000854618B020B5FFF78FFE60BC002749082D
:10045000B6460026C0C5C0C5C0C5C0C5C0C5C0C55C
:10046000C0C5C0C5403D49008D46704710B5044623
:10047000C046C0462046FFF766FE10BD00487047E4
:10048000D800002001491820ABBEFEE7260002007C
:10049000704772B6FEE70000F8B500250446203428
:1004A0000095227D012A39D00122227503689E68B9
:1004B000760767D4384F4E68BE424DD09E6A0F789B
:1004C000BA4016439E620123C26A1B079A421FD09C
:1004D000012A1DD0022A1BD0032A19D0042A17D0C2
:1004E000052A15D0062A13D0072A11D002688B6876
:1004F00056697607760FB3420AD05369DB08DB00F2
:100500005361006842690B7A5B075B0F1A434261D3
:100510000A68102A04D0112A02D038E00220F8BD5F
:100520001E488368102A07D0012292051343836076
:100530000868102803D02AE00122D205F6E71948FE
:1005400017490068FFF7C3FE0A21484300E0401E38
:1005500000900028FBD11AE0986A0E78B2409043D0
:1005600098620968102901D0112910D10B488268BE
:10057000102904D0012189058A43826007E0012106
:10058000C905F9E7816B2022114381630125002011
:1005900020752846F8BD000001100000002701402A
:1005A00040420F000C000020F8B500260446002849
:1005B00005D0A06B25462035002802D007E0012099
:1005C000F8BD0020E0632875204600F0A9F8A06B74
:1005D0001022C006002870DB2068816849076CD4AF
:1005E000A16B1301994302231943A1638168890711
:1005F000890F012905D10168C9070FD1C168090414
:100600000CD4C16818239943A3681943C1602068BA
:100610000169636889008908194301612068C1681C
:100620003D4B1940C160207E617E8003C9030843B1
:10063000A17E4B031843A36A012B02D001231B03A5
:1006400000E000231843E36818432369022B09D014
:10065000002318432B79E57E5B0018430123012D0D
:1006600002D00AE00423F4E7002927D0A16B20255B
:100670002943A163E16B1943E163E1690D46FF3D45
:10068000C23D02D0256A294308432168CD6805434D
:10069000CD600125E16A2D07A94213D0012911D0AF
:1006A00002290FD003290DD004290BD0052909D028
:1006B000062907D0072905D010E028E00121090408
:1006C0000843DAE721684D69ED08ED004D612168C6
:1006D0004D69A78D7F077F0F3D434D612168C96834
:1006E0000E4D2940814207D10020E063A06B8008B5
:1006F0008000401CA06308E0A06B022188431043E7
:10070000A063E06B1843E06301263046F8BDA06BA0
:100710001043A063F8E700001902FEFFE7FF3F83E4
:1007200010B586B0044614216846FFF7CEFD104987
:100730002068884219D10F48826941150A438261B5
:1007400082690A400592426909020A43426140698E
:1007500008400590012000900320019000200290A5
:1007600009206946C00600F019F806B010BD000067
:10077000002401400010024070B5044600F0E0F88B
:100780000546601C02D004480078241800F0D8F810
:10079000401BA042FAD370BD00000020F8B5002332
:1007A00003240125BAE02E469E40B44632407CD058
:1007B0000E79B607B60F012E01D0022E17D186682A
:1007C0002746B6465E00B74000967646BE43B6461C
:1007D000CF68009EB74076463743876046686746D5
:1007E000BE430F79FF06FF0F9F40374347600E79E6
:1007F000F643B6070ED0C6682746B4465E00B64636
:10080000B7406646BE43B4468F687646B7406646F4
:100810003743C7600E79B607B60F022E14D1DE0833
:10082000B60036180096366A5F07B446FE0E0F27EC
:10083000B646B7406646BE43B4460F697646B740F3
:1008400066463743009E376206682746B4465E0018
:10085000B646B7406646BE430F79B446BF07BF0FE2
:100860007646B7406646374307604E68B603B60F14
:1008700053D02D4FBE692E43BE61BE699F08F60757
:10088000F60F2A4EBF00BE190096B6680F27B44671
:100890009E07360FB646B7406646BE430927FF0699
:1008A000B446B84202D1002710E036E0204FB842EB
:1008B00001D101270AE01F4FB84201D1022705E00C
:1008C0001D4FB84201D1032700E005277646B74007
:1008D00066463743009EB760184EB6684F68964329
:1008E000FF0200D51643154FBE60FE684F68964361
:1008F000BF0200D51643114FFE607E684F689643D5
:10090000BF0300D516430D4F7E603E684F68964387
:10091000FF0300D51643094A16605B1C0A68164699
:10092000DE4000D03FE7F8BD00100240000001406B
:100930000004004800080048000C00480004014082
:10094000014880687047000000000020024881686C
:1009500002788918816070470000002010B50648B1
:100960000168102211430160032000F007F800F035
:1009700027F8002010BD00000020024070B504469A
:100980000D4D7D202978C000FFF7A1FC01460B48E2
:100990000068FFF79CFC00F021FB002809D1042C23
:1009A00007D200222146401E00F01EF800206C6095
:1009B00070BD012070BD0000000000200C00002070
:1009C00008B508488169012211438161816911409C
:1009D0000091C26901040A43C261C06908400090E5
:1009E00008BD00000010024010B500F05FFE10BD11
:1009F000F8B505460068354CC00352D5E0690026BD
:100A0000C00007D4E16920040143E161E1690140CC
:100A1000012600912E480168C90510D4016882158D
:100A200011430160FFF78CFF074604E0FFF788FFE2
:100A3000C01B642824D826480068C005F6D5206A63
:100A400003273F02384020D06968394081421CD0DA
:100A5000206A226AB843012109040A432262226AF9
:100A60008A4322622062C0070FD0FFF769FF00901F
:100A700008E0FFF765FF0099411A1648814201D945
:100A80000320F8BD206A8007F3D5206A6968B8435F
:100A900008432062002E04D0E16901200007814351
:100AA000E1612878C00705D0206BA9688008800024
:100AB000084320632878800605D5206B10218843E1
:100AC000E968084320630020F8BD000000100240E0
:100AD0000070004088130000F8B50F46060059D09A
:100AE0003A4D2868C007C00FB84209D228684008AC
:100AF0004000384328602868C007C00FB84249D179
:100B00003068334C81070CD5400704D56068072155
:100B10000902084360606068F0218843B1680843B7
:100B200060603078C00726D0706801280ED0216838
:100B300002280ED0890700292CDA6168890889000B
:100B400001436160FFF7FCFE00900DE0216889031E
:100B5000F1E78901EFE7FFF7F3FE0099411A1D481D
:100B6000814201D90320F8BD60680C2108407168FA
:100B700089008842EFD12868C007C00FB8420BD95E
:100B8000286840084000384328602868C007C00F24
:100B9000B84201D00120F8BD3078400706D5606822
:100BA000072109028843F1680843606000F028F8D3
:100BB0006168094A0906090F515CC8400749086085
:100BC0000320FFF7DBFE0020F8BD000000200240FC
:100BD0000010024088130000481700000C0000209D
:100BE0000448054900684968044A4905490F515CB1
:100BF000C84070470C000020001002405817000049
:100C000010B5104A51680C200B4603400E48042BC7
:100C100017D0082B15D18B020C4C1B0FE45CD26A49
:100C20000A4B1207120F10339A5CC90305D5002333
:100C30001946FFF7ABFA214601E02046044900F0CF
:100C40001CFD10BD0010024000127A0028170000A1
:100C500000093D00FEB5040070D02078DC4DC007CF
:100C60004AD068680007800F012807D0686800072D
:100C7000800F022809D16868C00306D52868800360
:100C80003AD560680028E7D036E06168012914D0C1
:100C900001208004002901D0052914D02A680121EF
:100CA00009048A432A602968814329606068002812
:100CB00016D0FFF745FE06460EE02868012109041C
:100CC00008432860F2E7296801432960F5E7FFF748
:100CD00037FE801B64286ED828688003F7D50BE0A8
:100CE000FFF72EFE064604E0FFF72AFE801B64286D
:100CF000F1D828688003F7D42078012680070028DF
:100D00003CDA68680007800F07D068680007800F2A
:100D1000022809D16868C00306D42868800716D560
:100D2000E06801280AD112E0E0680028286816D09F
:100D300030432860FFF704FE074605E043E1FFF774
:100D4000FFFDC01B0228C6D828688007F7D5286891
:100D5000F82188432169C900084328600EE0400853
:100D600040002860FFF7ECFD074604E0FFF7E8FDD0
:100D7000C01B0228AFD828688007F7D42078000766
:100D800022D5E0690028686A0ED030436862FFF718
:100D9000D7FD074604E0FFF7D3FDC01B02289AD811
:100DA000686A8007F7D50FE0400840006862FFF7E7
:100DB000C7FD074605E09DE0FFF7C2FDC01B022806
:100DC00089D8686A8007F7D420780427400700286C
:100DD00060DA00200190E869C00008D4E969B8062B
:100DE0000143E961E96901400120009101907948DE
:100DF0000168C90511D40168821511430160FFF72C
:100E00009FFD009005E0FFF79BFD0099401A6428C4
:100E100070D870480068C005F5D5A06801280AD0D0
:100E2000002801D0052810D0286A40084000286218
:100E3000286AB84301E0286A30432862A068002885
:100E400012D0FFF77DFD00900AE0286A384328623F
:100E5000F1E7FFF775FD0099411A5F48814249D8D3
:100E6000286A8007F5D50DE0FFF76AFD009006E0DF
:100E7000FFF766FD0099411A574881423AD8286A1F
:100E80008007F5D40198002804D0E9690120000703
:100E90008143E9612078C00635D5606901280CD00E
:100EA000401D686B23D038436863686B400840007E
:100EB0006863FFF745FD064622E0686B38436863C8
:100EC000686B30436863FFF73BFD064604E0FFF7BD
:100ED00037FD801B02285BD8686B8007F7D5686BED
:100EE000F8218843A169C900084368630BE0B8434F
:100EF0006863F4E74CE0FFF723FD801B022847D826
:100F0000686B8007F7D4206A00285ED069680907FB
:100F1000890F022942D0012636060228286805D00A
:100F2000B0432860FFF70CFD044633E0B04328606F
:100F3000FFF706FD074604E0FFF702FDC01B02288D
:100F400026D828688001F7D4E86AE16A0009000120
:100F50000843E862616AA06A084369683D22120496
:100F6000914308436860286830432860FFF7E8FC35
:100F7000044604E0FFF7E4FC001B022808D82868B8
:100F80008001F7D521E0FFF7DBFC001B022801D927
:100F90000320FEBD28688001F5D416E00128F8D0B2
:100FA0006868E96A01221204636A02409A420AD11F
:100FB0000907E26A090F914205D10F21890408400F
:100FC000A16A884201D00120FEBD0020FEBD0000C4
:100FD000001002400070004088130000094910B55D
:100FE000401E884201D9012010BD074C60610321D9
:100FF000081F00F05BFB0020A0610720206100209B
:1010000010BD0000FFFFFF0000E000E010B504008D
:1010100003D0E06F002802D007E0012010BD0021BE
:1010200078200155204600F027F82420E06720684A
:101030000168490849000160606A002802D0204622
:1010400000F04BF9204600F03FFA0128E6D0206876
:1010500041680122D20291434160206881680822E0
:10106000914381602068016801221143016020469C
:1010700000F098F910BD000010B586B004461421A8
:101080006846FFF722F91349206888421FD11248A9
:101090008269012189030A43826182690A400592BB
:1010A0004269C9000A434261406908400590032033
:1010B0004002009002200190002002900320039043
:1010C0000120049009206946C006FFF767FB06B0BF
:1010D00010BD00000038014000100240FFB504467A
:1010E000C06F83B017460D46202802D0022007B0FB
:1010F000F0BD002D0BD0002F09D00120A168000306
:10110000814206D12069002803D1E80701D00120DF
:10111000EDE70021842001512120E067FFF710FC5A
:10112000264640360190378277820120A16800036D
:10113000814202D12069002802D02F46002511E00B
:1011400000270FE000228021204600F04BFA002803
:1011500015D1002F17D02168387808857F1C708A38
:10116000401E7082708A019B002806980090E9D189
:1011700000224021204600F035FA00280AD0202025
:10118000E0670320B3E728882168C005C00D088503
:10119000AD1CE4E72020E0670020A8E7FEE70000A0
:1011A0003EB500241649174800940194029412C0D9
:1011B000046004224460C2600121816004744474AC
:1011C0008474C474FF22C2328461426102461832C0
:1011D000147101620838FFF7E7F9002801D0FFF722
:1011E00058F9012000030190000402900094694620
:1011F0000448FFF751F9002801D0FFF74AF93EBD36
:10120000002401401000002008B505484269012172
:1012100049040A43426140690840009008BD00004B
:101220000010024010B50C480A4901604B214902E8
:10123000416000218160C16001618161C1610C2256
:10124000016242614162FFF7E1FE002801D0FFF731
:1012500020F910BD0038014050000020FEE7704723
:10126000704710B5FFF772FB10BD30B595B0302157
:101270006846FFF72AF8002401250F9412200595EF
:1012800000900D940E9410201094129413940C94CA
:10129000039504900690119408946846FFF7DAFCD1
:1012A000002801D072B6FEE707200C900D940E9432
:1012B00000210F940CA8FFF70FFC002801D072B694
:1012C000FEE710A810951294FFF792FB002801D0BA
:1012D00072B6FEE715B030BD704710B5818C0907B6
:1012E00007D501684A680123DB039A43436B1A431D
:1012F0004A60818CC90707D001684A6801235B04F2
:101300009A43836A1A434A60818C890707D501682A
:101310004A6801231B049A43C36A1A434A60818CBA
:10132000490707D501684A6801239B049A43036B68
:101330001A434A60818CC90607D502689168012367
:101340001B039943836B19439160818C890607D5F0
:1013500001688A6801235B039A43C36B1A438A605E
:10136000818C490612D503685A6801210905046C6D
:101370008A4322435A60026C8A4207D1026851684C
:1013800003235B059943436C19435160818C090623
:1013900007D501684A680123DB04806C9A43024345
:1013A0004A6010BDFEB507460025803704467D60C3
:1013B000FFF7C6FA019020680068264600076036ED
:1013C000002819DA2748009001210022490520460B
:1013D000019B00F007F900280ED0EFF310800121E7
:1013E00081F3108821680A6880239A430A6080F399
:1013F00010882020E06729E020680068400728D591
:10140000184800900121002289052046019B00F028
:10141000E9F800281DD0EFF31080012181F3108836
:1014200021680A68FF2321339A430A6080F31088F9
:10143000EFF31080012181F3108821688A68520837
:1014400052008A6080F310882020386035760320AF
:10145000FEBD2020E0673860256665663576002091
:10146000FEBD0000FFFFFF0110B5EFF31081012268
:1014700082F3108802681368FF242134A3431360A9
:1014800081F31088EFF31081012282F31088026843
:1014900093685B085B00936081F31088016E0129FB
:1014A0000BD1EFF31081012282F3108802681368D8
:1014B0001024A343136081F31088202280210A5056
:1014C00000210166816610BD70B5044680682169FF
:1014D000E2690843616900251143084321680A68ED
:1014E0003C4B1A4002430A602168486803221203F9
:1014F0009043E26810434860A169206A084321686C
:101500008A680B231B029A4302438A603248006BAD
:101510008007800F16D0012818D0022818D0032881
:1015200012D010210122E369D2032C482C4E9342A1
:101530002AD100290ED0022913D004290DD0082960
:101540003BD11FE00021EDE70221EBE70421E9E7B1
:101550000821E7E7FFF744FB01E0FFF751FB002814
:1015600032D0616840004A088018FEF7B0FE01469C
:101570001039B14221D81A49491C01400007400FD7
:1015800008431FE01046ECE7002906D002290BD0E3
:10159000042905D0082910D111E0FFF721FB01E053
:1015A000FFF72EFB00280FD061684A081018FEF7DD
:1015B0008EFE01461039B14203D9012504E01046E0
:1015C000F2E780B22168C8600020A066E066284685
:1015D00070BD0000F369FFFF0010024000127A00A6
:1015E000EFFF0000FFB506468036054681B00F4686
:1015F0000446603534E00A98401C31D0FFF7A0F96A
:101600000499411A0A98814218D8002816D02068F7
:101610000168490724D5802F22D0402F20D0C169EE
:10162000C94309070CD4082707622046FFF71CFFAF
:10163000776000202876012005B0F0BD0320FBE78D
:10164000C069C04300050BD401202168C0020862B4
:101650002046FFF709FF2020706000202876EDE784
:101660002068C1693846884305D00021039881422B
:10167000C1D00020E0E70121F8E7F8B5040C8BB2F7
:10168000264682B25E430D0C1046370C5843360492
:1016900080190021794116466E43370C36048019B3
:1016A000794126466E438919F8BD00008307FF2261
:1016B000DB0E9A408907090E9940002808DB830851
:1016C00009489B001B18186890430843186070472E
:1016D0000007000F0838830804489B001B18D869CE
:1016E00090430843D861704700E400E000ED00E05B
:1016F000FFF734F9FFF7B9FDFFF786FDFFF750FD5F
:10170000FFF790FD7D24E4002346042203A1054851
:10171000FFF7E4FC2046FFF72FF8F5E774657374D4
:10172000000000005000002002030405060708091D
:101730000A0B0C0D0E0F101001020304050607081A
:10174000090A0B0C0D0E0F10000000000000000035
:101750000102030406070809000000000102030457
:10176000801700000000002010000000F4000000BE
:101770009017000010000020280700001001000052
:1017800001000000040000000000000000127A00C8
:04000005000000B146
:00000001FF
