:020000040000FA
:10000000280700205501000049160000991500003E
:1000100000000000000000000000000000000000E0
:1000200000000000000000000000000019170000A0
:1000300000000000000000004B1600001B1700002D
:100040006701000000000000670100006701000078
:100050006701000067010000670100006701000000
:100060000000000067010000670100006701000058
:100070006701000067010000670100000000000048
:1000800067010000000000000000000067010000A0
:100090000000000067010000670100006701000028
:1000A0000000000067010000000000006701000080
:1000B00000F002F800F03EF80CA030C80838241810
:1000C0002D18A246671EAB4654465D46AC4201D190
:1000D00000F030F87E460F3E0FCCB6460126334284
:1000E00000D0FB1AA246AB4633431847941D0000CC
:1000F000B41D0000103A02D378C878C1FAD852076C
:1001000001D330C830C101D504680C6070470000CD
:100110000023002400250026103A01D378C1FBD823
:10012000520700D330C100D50B6070471FB51FBD0B
:1001300010B510BD00F0DCF91146FFF7F7FF01F034
:10014000BBFD00F0F4F903B4FFF7F2FF03BC00F0CD
:10015000FBF900000748804707480047FEE7FEE735
:10016000FEE7FEE7FEE7FEE704480549054A064BC1
:100170007047000091170000B10000002801002026
:1001800028070020280300202803002010B5202A7B
:1001900004DB0846203AD040002110BD0B46202445
:1001A000D340D040A21A91400843194610BD4343A2
:1001B000514330B55C18010C130C0D4692B25D43EF
:1001C00080B251432C19054655430A0C09044D19B8
:1001D00062415843010C00044019514130BD70B5D3
:1001E00000252C46AD1A9C4112DA00252C462D1A0A
:1001F0008C4102DA00F02BF870BD002440428C41A3
:10020000214600F024F8002440428C41214619E0A8
:1002100000252C462D1A8C410ADA002452429C41BA
:10022000234600F014F8002440428C41214670BD62
:10023000002452429C414042234600248C412146E6
:1002400000F005F8002452429C41234670BDFEB5E3
:10025000054610460C46184373D0AE468C46002027
:10026000AD1A01469C4167D36646002701243D46EE
:10027000B61A9D4102D313463A4621246546764676
:100280002F04360C3E432D0CB61A9D4104D3150C99
:100290001B042B4312041034654676462F06360A9B
:1002A0003E432D0AB61A9D4104D3150E1B022B4363
:1002B00012020834654676462F0736093E432D095B
:1002C000B61A9D4104D3150F1B012B431201241DA7
:1002D00065467646AF07B6083E43AD08B61A9D415F
:1002E00004D3950F9B002B439200A41C65467646D1
:1002F000EF0776083E436D08B61A9D411AD392184F
:100300005B41641C16E00018764665464941B71A01
:100310009D410191009009D36046B11A98418E46E3
:100320008446009801990025401C6941DD07520868
:100330002A435B08641EE6D57246634603B0F0BDEF
:10034000FFE700200146C046C0462A462346F5E79F
:1003500001E004C0091F0429FBD28B0701D50280EC
:10036000801CC90700D00270704700290BD0C3075A
:1003700002D00270401C491E022904D3830702D513
:100380000280801C891EE3E70022EEE70022DFE7FF
:10039000002203098B422CD3030A8B4211D3002382
:1003A0009C464EE003460B433CD4002243088B425C
:1003B00031D303098B421CD3030A8B4201D39446E9
:1003C0003FE0C3098B4201D3CB01C01A52418309DC
:1003D0008B4201D38B01C01A524143098B4201D396
:1003E0004B01C01A524103098B4201D30B01C01AC1
:1003F0005241C3088B4201D3CB00C01A524183083B
:100400008B4201D38B00C01A524143088B4201D367
:100410004B00C01A5241411A00D2014652411046C7
:1004200070475DE0CA0F00D04942031000D340423C
:10043000534000229C4603098B422DD3030A8B4272
:1004400012D3FC22890112BA030A8B420CD3890110
:1004500092118B4208D3890192118B4204D38901F6
:100460003AD0921100E08909C3098B4201D3CB0134
:10047000C01A524183098B4201D38B01C01A5241E9
:1004800043098B4201D34B01C01A524103098B42ED
:1004900001D30B01C01A5241C3088B4201D3CB00D8
:1004A000C01A524183088B4201D38B00C01A5241BB
:1004B000D9D243088B4201D34B00C01A5241411A92
:1004C00000D20146634652415B10104601D34042C0
:1004D000002B00D54942704763465B1000D3404271
:1004E00001B50020C046C04602BD70477047704746
:1004F000754600F025F8AE46050069465346C0082B
:10050000C000854618B020B5FFF72EFE60BC00275E
:100510004908B6460026C0C5C0C5C0C5C0C5C0C5CF
:10052000C0C5C0C5C0C5403D49008D46704710B527
:100530000446C046C0462046FFF705FE10BD000039
:1005400000487047C800002001491820ABBEFEE7F4
:10055000260002007047F8B5089F040001D0152955
:1005600001D20020F8BDAA2525705526667002200C
:10057000A0700120E0700C20207162711946A01D4E
:1005800000F04AF820460A30069900F045F8204667
:100590000E30079900F03CF83807000F20740F2147
:1005A000A01C00F009F801462046113000F030F898
:1005B000E67425751520F8BD70B504000C4802D00E
:1005C00000220C4D10E0002070BDA35C58400023B9
:1005D000C60702D04008684000E040085B1CDBB260
:1005E000082BF5D3521C92B28A42EED370BD0000A4
:1005F000FFFF000001A00000C007C907000F490F5E
:100600000843D107890F0843D907C90F084370472A
:100610000170090A4170704701700A0A42700A0CA1
:100620008270090EC170704708B5002069460870D5
:100630000878102803D200BF0878401CF7E708BDEF
:10064000092208B5D2060F49904203D14A69012018
:10065000400404E00C4A904207D14A690002024378
:100660004A6149690140009108BD084A904202D19F
:100670004A690002F3E7064A9042F5D14A6901202F
:100680008005ECE700100240000400480008004824
:100690000014004810B586B014216846FFF776FEB6
:1006A0000924E4062046FFF7CBFF2046FFF7C8FFEA
:1006B0002020009001200190002002900320039050
:1006C0006946204600F05CFA00F0A5F800F08BF8CF
:1006D00006B010BD10B5FFF7DDFF052000F092F960
:1006E0000248007800F0C0F810BD000004000020AF
:1006F00010B500F070F8FFF797FF00F074F8FFF7FF
:1007000093FF10BDF8B5074600240E462046002F83
:1007100000D03870002E00D03070FF209130009053
:1007200000F00CFB054607E000F008FB411B0098B9
:10073000814201D90020F8BD00F040F80128F3D033
:1007400000F069F800F04FF8002500F044F8FFF7DA
:100750006BFF640000F032F8012800D1044300F080
:1007600042F8FFF761FF6D1CEDB2182DEDD300F0DC
:1007700032F8FFF759FF002F04D000F01FF80128CE
:1007800000D1387000F02FF8FFF74EFF00F023F88B
:10079000FFF74AFF002E04D000F010F8012800D126
:1007A000307000F020F8FFF73FFFFFF7A1FF2002B5
:1007B00002D5FF20000604432046F8BD10B50920ED
:1007C0008021C00600F0AEFA10BD10B50021084629
:1007D000FFF798FF10BD10B5092001222021C006A7
:1007E00000F0A5FA10BD10B5092000222021C00696
:1007F00000F09DFA10BD10B5002B00D040238907F2
:10080000890E80070B43000F03439007800F1843A6
:1008100000F02AF810BD00B585B014216846FFF736
:10082000B5FD802000900020019001200290092059
:100830006946C00600F0A4F905B000BD10B5054931
:1008400009784A06D30F8A078906920F890FFFF7A6
:10085000D2FF10BD04000020002801D001494860EB
:10086000704700000400002070B50546002186B0E6
:100870000846FFF747FF14216846FFF787FD8020F1
:100880000090012001900020029003200390092095
:100890006946C00600F074F9012000F031F8FFF756
:1008A00027FFFFF725FF002465263046A0404006BD
:1008B000C00F00F025F8FFF71BFF641CE4B2072C03
:1008C000F3D3012000F01CF8FFF712FF00242846A4
:1008D000A0400006C00F00F013F8FFF709FF641CEA
:1008E000E4B2082CF3D3FFF796FFFFF701FF680689
:1008F0000249400E0870002006B070BD04000020C0
:10090000024610B509208021C00600F010FA10BD83
:1009100072B6FEE706490020C86106480169042254
:1009200011430161016940221143016170470000D8
:10093000A800002000200240064A0021D16106499B
:100940000A6902231A430A61486108694022104378
:1009500008617047A80000200020024010B5054B38
:100960000022DA61044A13690124234313610180E0
:1009700010BD0000A80000200020024010B50B4A66
:100980000020D168CB060A4904D5C8690223184360
:10099000C8611020D3685B0705D5CB6901242343C8
:1009A000CB6104210843D06010BD0000002002404C
:1009B000A800002070B5054600F0C0F90646104CAE
:1009C0000AE0681C08D0002D04D000F0B7F9801BA5
:1009D000A84201D9032070BDE068C007F1D1E068EA
:1009E000800601D52020E060E068C00602D4E068FF
:1009F000400703D5FFF7C2FF012070BD002070BD86
:100A00000020024070B5044600F098F90546601CCD
:100A100002D004480078241800F090F9401BA0424E
:100A2000FAD370BD10000020F8B5054623480F46E4
:100A3000017E012601290BD0012101762868204C76
:100A4000012807D02046FFF7B5FF002813D030E07B
:100A50000220F8BD2046FFF7ADFF002829D1FFF79F
:100A600059FF2046FFF7A6FF0646164801690422F3
:100A7000914301611DE00020C04338606C6812E0C2
:100A80002046FFF759FF0E48FFF794FF06460D4832
:100A9000026902218A430261002E01D03C6008E015
:100AA000012080022418A868810268680818A04202
:100AB000E6D80248002101763046F8BDA8000020A3
:100AC00050C3000000200240034801698022114306
:100AD000016100207047000000200240F0B51FB403
:100AE00007461A480024017E15461E46012907D0F4
:100AF000012101761648FFF75DFF002803D020E0B2
:100B0000022005B0F0BD012F02D0022F00D0042733
:100B1000220128463146FFF739FB81B20198620075
:100B20001018FFF71BFF0A48FFF744FF09490A693D
:100B3000520852000A61002803D1641CE4B2BC428E
:100B4000E6D3024900220A76DBE70000A800002075
:100B500050C3000000200240064900200A69120626
:100B600007D5054A4A60054A4A600969090600D561
:100B7000012070470020024023016745AB89EFCD7B
:100B8000F8B5002303240125BAE02E469E40B44662
:100B900032407CD00E79B607B60F012E01D0022E5E
:100BA00017D186682746B6465E00B740009676465F
:100BB000BE43B646CF68009EB7407646374387604F
:100BC00046686746BE430F79FF06FF0F9F403743D5
:100BD00047600E79F643B6070ED0C6682746B4467E
:100BE0005E00B646B7406646BE43B4468F6876465A
:100BF000B74066463743C7600E79B607B60F022E78
:100C000014D1DE08B60036180096366A5F07B4467F
:100C1000FE0E0F27B646B7406646BE43B4460F6980
:100C20007646B74066463743009E376206682746D9
:100C3000B4465E00B646B7406646BE430F79B4463A
:100C4000BF07BF0F7646B7406646374307604E681A
:100C5000B603B60F53D02D4FBE692E43BE61BE6999
:100C60009F08F607F60F2A4EBF00BE190096B66819
:100C70000F27B4469E07360FB646B7406646BE43BA
:100C80000927FF06B446B84202D1002710E036E03B
:100C9000204FB84201D101270AE01F4FB84201D1CD
:100CA000022705E01D4FB84201D1032700E00527C8
:100CB0007646B74066463743009EB760184EB66822
:100CC0004F689643FF0200D51643154FBE60FE687D
:100CD0004F689643BF0200D51643114FFE607E68F1
:100CE0004F689643BF0300D516430D4F7E603E68A4
:100CF0004F689643FF0300D51643094A16605B1CF4
:100D00000A681646DE4000D03FE7F8BD00100240FA
:100D1000000001400004004800080048000C0048A2
:100D2000000401400069084000D001207047002AFB
:100D300001D081617047816270470000014880687E
:100D4000704700001000002002488168027889186E
:100D5000816070471000002010B50648016810221D
:100D600011430160032000F007F800F027F800208D
:100D700010BD00000020024070B504460D4D7D20DE
:100D80002978C000FFF704FB01460B480068FFF715
:100D9000FFFA00F021FB002809D1042C07D2002221
:100DA0002146401E00F01EF800206C6070BD01203E
:100DB00070BD0000100000201C00002008B508488D
:100DC0008169012211438161816911400091C269E9
:100DD00001040A43C261C0690840009008BD0000D8
:100DE0000010024010B500F045FF10BDF8B50546F3
:100DF0000068354CC00352D5E0690026C00007D416
:100E0000E16920040143E161E169014001260091AB
:100E10002E480168C90510D401688215114301608C
:100E2000FFF78CFF074604E0FFF788FFC01B64282C
:100E300024D826480068C005F6D5206A03273F025B
:100E4000384020D06968394081421CD0206A226A2B
:100E5000B843012109040A432262226A8A432262BA
:100E60002062C0070FD0FFF769FF009008E0FFF78E
:100E700065FF0099411A1648814201D90320F8BD47
:100E8000206A8007F3D5206A6968B8430843206266
:100E9000002E04D0E169012000078143E161287838
:100EA000C00705D0206BA968800880000843206334
:100EB0002878800605D5206B10218843E96808430F
:100EC00020630020F8BD00000010024000700040C8
:100ED00088130000F8B50F46060059D03A4D28682F
:100EE000C007C00FB84209D2286840084000384304
:100EF00028602868C007C00FB84249D13068334C19
:100F000081070CD5400704D5606807210902084312
:100F100060606068F0218843B168084360603078A1
:100F2000C00726D0706801280ED0216802280ED094
:100F3000890700292CDA616889088900014361600A
:100F4000FFF7FCFE00900DE021688903F1E78901BD
:100F5000EFE7FFF7F3FE0099411A1D48814201D9DE
:100F60000320F8BD60680C21084071688900884240
:100F7000EFD12868C007C00FB8420BD928684008D5
:100F80004000384328602868C007C00FB84201D02D
:100F90000120F8BD3078400706D5606807210902B6
:100FA0008843F1680843606000F028F86168094AE6
:100FB0000906090F515CC840074908600320FFF784
:100FC000DBFE0020F8BD00000020024000100240BF
:100FD00088130000681E00001C000020044805491A
:100FE00000684968044A4905490F515CC840704788
:100FF0001C00002000100240781E000010B5104AAE
:1010000051680C200B4603400E48042B17D0082BC8
:1010100015D18B020C4C1B0FE45CD26A0A4B1207F1
:10102000120F10339A5CC90305D500231946FFF748
:101030000EF9214601E02046044900F003FE10BDF0
:101040000010024000127A00481E000000093D0016
:10105000FEB5040070D02078DC4DC0074AD0686827
:101060000007800F012807D068680007800F02285A
:1010700009D16868C00306D5286880033AD560683E
:101080000028E7D036E06168012914D001208004EF
:10109000002901D0052914D02A68012109048A43B6
:1010A0002A602968814329606068002816D0FFF70C
:1010B00045FE06460EE02868012109040843286021
:1010C000F2E7296801432960F5E7FFF737FE801B47
:1010D00064286ED828688003F7D50BE0FFF72EFE52
:1010E000064604E0FFF72AFE801B6428F1D8286832
:1010F0008003F7D420780126800700283CDA68684E
:101100000007800F07D068680007800F022809D108
:101110006868C00306D42868800716D5E0680128EF
:101120000AD112E0E0680028286816D03043286011
:10113000FFF704FE074605E043E1FFF7FFFDC01B94
:101140000228C6D828688007F7D52868F821884380
:101150002169C900084328600EE04008400028606B
:10116000FFF7ECFD074604E0FFF7E8FDC01B02288F
:10117000AFD828688007F7D42078000722D5E06927
:101180000028686A0ED030436862FFF7D7FD074633
:1011900004E0FFF7D3FDC01B02289AD8686A8007D5
:1011A000F7D50FE0400840006862FFF7C7FD07462B
:1011B00005E09DE0FFF7C2FDC01B022889D8686AE0
:1011C0008007F7D4207804274007002860DA002041
:1011D0000190E869C00008D4E969B8060143E961F3
:1011E000E969014001200091019079480168C90531
:1011F00011D40168821511430160FFF79FFD009033
:1012000005E0FFF79BFD0099401A642870D87048EC
:101210000068C005F5D5A06801280AD0002801D0D3
:10122000052810D0286A400840002862286AB84380
:1012300001E0286A30432862A068002812D0FFF736
:101240007DFD00900AE0286A38432862F1E7FFF745
:1012500075FD0099411A5F48814249D8286A800784
:10126000F5D50DE0FFF76AFD009006E0FFF766FD9B
:101270000099411A574881423AD8286A8007F5D424
:101280000198002804D0E969012000078143E96141
:101290002078C00635D5606901280CD0401D686BE8
:1012A00023D038436863686B400840006863FFF7E9
:1012B00045FD064622E0686B38436863686B30433F
:1012C0006863FFF73BFD064604E0FFF737FD801B30
:1012D00002285BD8686B8007F7D5686BF8218843D4
:1012E000A169C900084368630BE0B8436863F4E789
:1012F0004CE0FFF723FD801B022847D8686B80076E
:10130000F7D4206A00285ED069680907890F02298E
:1013100042D0012636060228286805D0B04328604E
:10132000FFF70CFD044633E0B0432860FFF706FDED
:10133000074604E0FFF702FDC01B022826D82868F4
:101340008001F7D4E86AE16A000900010843E86215
:10135000616AA06A084369683D2212049143084308
:101360006860286830432860FFF7E8FC044604E022
:10137000FFF7E4FC001B022808D828688001F7D595
:1013800021E0FFF7DBFC001B022801D90320FEBD92
:1013900028688001F5D416E00128F8D06868E96A69
:1013A00001221204636A02409A420AD10907E26AE2
:1013B000090F914205D10F2189040840A16A884292
:1013C00001D00120FEBD0020FEBD00000010024043
:1013D0000070004088130000094910B5401E884283
:1013E00001D9012010BD074C60610321081F00F0E6
:1013F00041FC0020A06107202061002010BD0000FA
:10140000FFFFFF0000E000E010B5040003D0E06F34
:10141000002802D007E0012010BD002178200155EE
:10142000204600F027F82420E0672068016849087A
:1014300049000160606A002802D0204600F0A9F946
:10144000204600F09DFA0128E6D02068416801227C
:10145000D2029143416020688168082291438160F3
:1014600020680168012211430160204600F0F6F96E
:1014700010BD000010B586B0044614216846FEF782
:1014800085FF1349206888421FD1124882690121D3
:1014900089030A43826182690A4005924269C90050
:1014A0000A434261406908400590032040020090D1
:1014B000022001900020029003200390012004905C
:1014C00009206946C006FFF75BFB06B010BD0000AF
:1014D0000038014000100240FFB50446C06F83B0E1
:1014E00017460D46202802D0022007B0F0BD002D7F
:1014F0000BD0002F09D00120A1680003814206D142
:101500002069002803D1E80701D00120EDE7002180
:10151000842001512120E067FFF710FC2646403669
:101520000190378277820120A1680003814202D1B5
:101530002069002802D02F46002511E000270FE087
:1015400000228021204600F0A9FA002815D1002FA2
:1015500017D02168387808857F1C708A401E7082F9
:10156000708A019B002806980090E9D10022402152
:10157000204600F093FA00280AD02020E0670320DC
:10158000B3E728882168C005C00D0885AD1CE4E7D5
:101590002020E0670020A8E7FEE7000070B586B0D5
:1015A00014216846FEF7F2FE1848426901214904F9
:1015B0000A434261406909260840F6060590002268
:1015C00020213046FFF7B3FB8020002401256A4626
:1015D00031C269463046FFF7D3FA2020009003203D
:1015E00003900195029469463046FFF7C9FA1E2020
:1015F0006A4631C269463046FFF7C2FA01221E210F
:101600003046FFF794FB06B070BD000000100240AA
:1016100010B50C480A4901604B21C9014160002105
:101620008160C16001618161C1610C22016242611E
:101630004162FFF7E9FE002801D0FFF769F910BD0C
:101640000038014020000020FEE770470B490028C9
:101650000FD00B4B0A689A420AD18B684968094A35
:101660004A40934204D1002902D0074A914201D94D
:10167000002070470180012070470000003C0008F6
:10168000455248541F08EDF150C30000F0B5002644
:1016900085B00396002802D01B49884202D9002059
:1016A00005B0F0BD1A4904464840184F0546FFF7FB
:1016B00053FA00960120174E029003A9019668463E
:1016C000FFF7B2F9002818D13A460023314602202C
:1016D000FFF704FA002810D122460023311D022012
:1016E000FFF7FCF9002808D10A492A4600230831EF
:1016F0000220FFF7F3F9002802D0FFF7E5F9CEE763
:10170000FFF7E2F90120CBE750C3000045524854EF
:101710001F08EDF1003C0008704710B5FFF714FBFF
:1017200010BD30B595B030216846FEF72FFE00247D
:1017300001250F941220059500900D940E94102011
:101740001094129413940C940395049006901194A1
:1017500008946846FFF77CFC002801D072B6FEE7CB
:1017600007200C900D940E9400210F940CA8FFF705
:10177000B1FB002801D072B6FEE710A810951294B4
:10178000FFF734FB002801D072B6FEE715B030BD7C
:10179000704710B5818C090707D501684A68012395
:1017A000DB039A43436B1A434A60818CC90707D015
:1017B00001684A6801235B049A43836A1A434A60BA
:1017C000818C890707D501684A6801231B049A4365
:1017D000C36A1A434A60818C490707D501684A6881
:1017E00001239B049A43036B1A434A60818CC90608
:1017F00007D50268916801231B039943836B194342
:101800009160818C890607D501688A6801235B0392
:101810009A43C36B1A438A60818C490612D50368C8
:101820005A6801210905046C8A4322435A60026CFC
:101830008A4207D10268516803235B059943436CD0
:1018400019435160818C090607D501684A68012354
:10185000DB04806C9A4302434A6010BDFEB5074624
:101860000025803704467D60FFF768FA0190206804
:101870000068264600076036002819DA27480090DD
:101880000121002249052046019B00F007F90028AC
:101890000ED0EFF31080012181F3108821680A68CF
:1018A00080239A430A6080F310882020E06729E0B3
:1018B00020680068400728D51848009001210022C0
:1018C00089052046019B00F0E9F800281DD0EFF3C0
:1018D0001080012181F3108821680A68FF232133D9
:1018E0009A430A6080F31088EFF31080012181F39E
:1018F000108821688A68520852008A6080F3108834
:101900002020386035760320FEBD2020E067386057
:101910002566656635760020FEBD0000FFFFFF01ED
:1019200010B5EFF31081012282F31088026813686A
:10193000FF242134A343136081F31088EFF3108157
:10194000012282F31088026893685B085B00936051
:1019500081F31088016E01290BD1EFF31081012270
:1019600082F31088026813681024A343136081F384
:101970001088202280210A5000210166816610BD56
:1019800070B5044680682169E269084361690025F1
:101990001143084321680A683C4B1A4002430A601D
:1019A00021684868032212039043E26810434860AC
:1019B000A169206A084321688A680B231B029A43A5
:1019C00002438A603248006B8007800F16D00128DE
:1019D00018D0022818D0032812D010210122E36960
:1019E000D2032C482C4E93422AD100290ED0022932
:1019F00013D004290DD008293BD11FE00021EDE7C9
:101A00000221EBE70421E9E70821E7E7FFF7E6FA1F
:101A100001E0FFF7F3FA002832D0616840004A087D
:101A20008018FEF7B5FC01461039B14221D81A4999
:101A3000491C01400007400F08431FE01046ECE737
:101A4000002906D002290BD0042905D0082910D17D
:101A500011E0FFF7C3FA01E0FFF7D0FA00280FD03A
:101A600061684A081018FEF793FC01461039B1422C
:101A700003D9012504E01046F2E780B22168C8606E
:101A80000020A066E066284670BD0000F369FFFFF5
:101A90000010024000127A00EFFF0000FFB506467A
:101AA0008036054681B00F460446603534E00A981A
:101AB000401C31D0FFF742F90499411A0A9881423B
:101AC00018D8002816D020680168490724D5802F2F
:101AD00022D0402F20D0C169C94309070CD4082760
:101AE00007622046FFF71CFF776000202876012060
:101AF00005B0F0BD0320FBE7C069C04300050BD46F
:101B000001202168C00208622046FFF709FF20205B
:101B1000706000202876EDE72068C1693846884368
:101B200005D0002103988142C1D00020E0E70121C7
:101B3000F8E70000F8B50021244C8C464B1E0D46FA
:101B4000AA00A15812195268914201DA0F4600E02A
:101B50001746914201DD0E4600E01646B84209DB09
:101B6000B04207DC194BAC001833E5186D680095DE
:101B70001B5928E06D1CEDB2052DE1D30022910028
:101B8000655809194968A84201DD451B00E02D1A76
:101B9000884201DD411A00E0091A8D4200D229462F
:101BA000994201D20B469446521CD2B2052AE6D382
:101BB000064A6146890018328B185B6800935358B7
:101BC0000A195268615800F003F8F8BD181E0000A9
:101BD000F8B5D517CF178646541A1E460698BD414C
:101BE000801B00239B41224684462A4314D0704622
:101BF000C217401ABA4111466246FEF7D8FA009061
:101C00000F000BD40222002320462946FEF7E7FAF4
:101C1000009A801879410BE03046F8BD022200237B
:101C200020462946FEF7DBFA009A101A8F41394602
:101C300022462B46FEF7D3FA002280195141ECD5FB
:101C40000020F8BDF8B5040C8BB2264682B25E4384
:101C50000D0C1046370C5843360480190021794189
:101C600016466E43370C36048019794126466E437A
:101C70008919F8BD8307FF22DB0E9A408907090EF8
:101C80009940002808DB830809489B001B18186846
:101C900090430843186070470007000F0838830816
:101CA00004489B001B18D86990430843D8617047CB
:101CB00000E400E000ED00E096B0FFF74DF8FFF71C
:101CC00030FDFFF76BFCFFF7A3FCFEF703FD0120DF
:101CD000FEF7B4FD4D48FEF7BFFD18210AA8FEF738
:101CE00055FB002007904A48FFF7B0FC4849002800
:101CF00002D1FF2091300880FF20454990300880B4
:101D0000FFF7C4FC012000273E463D463C460690B6
:101D1000059004900390FEF758FD0890FFF70AFF26
:101D2000149009200221C006FEF7FCFF012800D014
:101D30000020099009200421C006FEF7F3FF0128C6
:101D400000D00020029009200821C006FEF7EAFF1B
:101D5000012800D00020019009201021C006FEF7C4
:101D6000E1FF012800D00020069A0999914206D08F
:101D7000052F03D27F1CFFB2052F01D30691002748
:101D8000059A0299914206D0052E03D2761CF6B22E
:101D9000052E01D305910026049A0199914206D09F
:101DA000052D03D26D1CEDB2052D01D30491002544
:101DB0000399884206D0052C03D2641CE4B2052C9A
:101DC00001D303900024039B049A05990698FEF71B
:101DD00013FC0F49089B0A88149902900192009104
:101DE00015210AA8079AFEF7B6FB02000AD0642361
:101DF0000AA90848FFF770FB002803D10798401C88
:101E0000C0B20790C820FEF7FDFD84E79F390000AF
:101E10000000002020000020BAEAFFFF1A33000073
:101E200064750100FEB702003865060085780C0075
:101E300000000000DA000000C2040000AA08000050
:101E400062140000EA2700000203040506070809DF
:101E50000A0B0C0D0E0F10100102030405060708F3
:101E6000090A0B0C0D0E0F1000000000000000000E
:101E70000102030406070809000000000102030430
:101E8000A01E00000000002020000000F400000060
:101E9000C01E000020000020080700001001000004
:101EA000900100000C000000B604000000000000DB
:101EB00001000000040000000000000000127A0091
:04000005000000B146
:00000001FF
